:100000001FC100004EC100004CC100004AC10000E9
:1000100048C1000046C1000044C1000042C10000C8
:1000200040C100003EC100003CC100003AC10000D8
:1000300038C1000036C1000034C1000032C10000E8
:1000400030C100002EC100002CC100002AC10000F8
:1000500028C1000026C1000024C100000C944823E0
:1000600020C100000C94F3260C9429271AC100002B
:1000700018C1000016C1000014C1000012C1000028
:1000800010C100000EC100000CC100000AC1000038
:1000900008C1000006C1000004C1000002C1000048
:1000A00000C10000FEC00000FCC00000FAC000005B
:1000B000F8C00000F6C00000F4C00000F2C000006C
:1000C000F0C00000EEC00000ECC00000EAC000007C
:1000D000E8C00000E6C00000E4C00000E2C000008C
:1000E000E0C00000232428242D2437244124BA24EE
:1000F0004B2453245B2465246F2479248824922480
:10010000BA249C24A624B024DB24DE24CD24D124CC
:10011000D7241525E224E624EC24F024F424FA2440
:10012000FE240225152508250C25102500000A0BA4
:1001300002090C0D0E080703040100000000000076
:1001400000000000000000000000000000000000AF
:10015000000000000000000012111000000000006C
:10016000000000000000000000000000000000008F
:1001700000000102102020080810204010204080BC
:10018000020102010804020101020408102040805B
:1001900080402010080402018004020180402010E9
:1001A0000804020108040201010204081020408032
:1001B0000102040810204080050505050705080810
:1001C0000808020202020A0A0808040404040101E1
:1001D00001010101010103030303030303030407F6
:1001E00007070C0C0C0C0C0C0C0C0202020206068D
:1001F0000606060606060B0B0B0B0B0B0B0B000083
:100200002200250028002B002E00310034000201BE
:100210000000050108010B01000021002400270057
:100220002A002D0030003300010100000401070105
:100230000A017402AC167A178B1C5B276303AF1696
:1002400011241FBECFEFD1E2DEBFCDBF00E00CBF57
:1002500013E0A0E0B2E0E8E7FBE500E00BBF02C07E
:1002600007900D92A83AB107D9F727E0A8EAB3E0C2
:1002700001C01D92A33EB207E1F712E0CCE3D2E049
:1002800000E006C022970109FE010BBF0E94142B5B
:10029000C233D10780E00807A9F70E949F270C947A
:1002A000AB2DAECE089585EB96E00E94011A61E079
:1002B00080911A020E94162561E0809116020E9428
:1002C000162561E0809114020E94162561E080915C
:1002D00018020E94162561E0809112020E941625E4
:1002E00061E0809110020E94162561E080910E026B
:1002F0000E94162561E080910C020E94162561E0A3
:1003000080910A020C94162566E970E080911A0229
:100310000E94002466E970E0809118020E94002487
:1003200061E0809116020E944F2560E080911402E6
:100330000E944F2561E0809112020E944F2560E0EB
:10034000809110020C944F2566E970E080911A02AA
:100350000E94002466E970E0809118020E94002447
:1003600060E0809116020E944F2561E080911402A6
:100370000E944F2560E0809112020E944F2561E0AB
:10038000809110020C944F2560E0809116020E942B
:100390004F2560E0809114020E944F2560E080911B
:1003A00012020E944F2560E0809110020C944F25AC
:1003B00066E970E080911A020E94002466E970E00C
:1003C000809118020E94002461E0809116020E9430
:1003D0004F2560E0809114020E944F2560E08091DB
:1003E00012020E944F2560E0809110020C944F256C
:1003F00066E970E080911A020E94002466E970E0CC
:10040000809118020E94002460E0809116020E94F0
:100410004F2560E0809114020E944F2561E0809199
:1004200012020E944F2560E0809110020C944F252B
:100430006AEF70E080910E020E94002461E08091DA
:100440000C020E944F2560E080910A020C944F2517
:1004500060E070E080910E020E94002460E08091D4
:100460000C020E944F2560E080910A020C944F25F7
:100470006AEF70E080910E020E94002460E080919B
:100480000C020E944F2561E080910A020C944F25D6
:100490008AE496E03CD7811137CF8AE496E03CD7D6
:1004A000811152CF8AE496E03DD78111A1CF8AE431
:1004B00096E03ED781117CCF8AE496E03FD7811148
:1004C000B7CF8AE496E03ED78111D2CF8AE496E096
:1004D0003ED7811108C08AE496E03FD7882311F007
:1004E00053DFB6CF51CF089584E996E078D18FE7F6
:1004F00096E05BD165E189E796E00E94ED1E88E514
:1005000092E090937A06809379068CE696E06CD21E
:1005100065E286E696E00E94ED1E80E792E0909309
:100520006706809366066EE180E696E00E94ED1E07
:1005300088E492E0909361068093600669E18AE521
:1005400096E00E94ED1E80E292E090935B0680931D
:100550005A066BE184E596E00E94ED1E80E592E08C
:1005600090935506809354068AE496E0C1D688E3BA
:1005700096E00E943A0B83E296E00E94BC0B8EE06C
:1005800096E00E94410C8DED95E00E94301183EDC4
:1005900095E00E944F1288EC95E00E948E128FEB3E
:1005A00095E00E949E1262E089EB95E00E94ED1EAC
:1005B00080E692E09093BA058093B90580EA95E0D1
:1005C0000E9438138BE895E00E94AE1381E895E015
:1005D0000E94F0136DE18BE795E00E94ED1E80E430
:1005E00092E090937C0580937B0566E085E795E03B
:1005F0000E94ED1E88E292E0909376058093750547
:1006000080E695E00E94EE1C82E495E00E94611D68
:1006100083E395E00E94311E88E295E00E947A1EF5
:100620008EE195E00E94AB1E84E195E00E94DF1E02
:1006300067E08EE095E00E94ED1E80E392E09093EB
:100640000F0580930E056FE188E095E00E94ED1E96
:1006500088E392E090930905809308058EEF94E07B
:100660000E946E1F8DEE94E00E94592083EE94E06C
:100670000E94902082E994E00E940D2188E894E095
:100680000E945B2163E282E894E00E94ED1E88E60E
:1006900092E0909383048093820481E794E00E9427
:1006A00052228BE594E00E94302385E094E0AFD1A4
:1006B00084EF93E00E9498168EEA93E06DD788EA63
:1006C00093E00C94652284E793E0909393048093E5
:1006D00092040895EF92FF920F931F93CF93DF93AD
:1006E000EC010E94101F0E94AD17813009F056C026
:1006F000CE010E94101F60E00E94BC178C01CE0149
:100700000E94101FB8010E94D5176E837F838887CF
:100710009987CE010E94101F61E00E94BC178C01D6
:10072000CE010E94101FB8010E94D5176A877B87EF
:100730008C879D87CE010E94101F62E00E94BC172B
:100740008C01CE010E94101FB8010E94D5176E8740
:100750007F87888B998B8A89882301F1CE010E943B
:10076000FE1E81111BC0CE010E94F81EEE84FF8484
:10077000088919892A853B854C855D856E817F8135
:1007800088859985EB89FC891995CE01DF91CF91F8
:100790001F910F91FF90EF900C94FB1EDF91CF9172
:1007A0001F910F91FF90EF900895CF93DF93EC018D
:1007B0006BE00E94ED1E88E792E0998388831E8299
:1007C0001F82188619861A861B861C861D861E8621
:1007D0001F86188A198A1A8ADF91CF910895CF93BC
:1007E000DF93EC0168E00E94ED1E80E892E09983BF
:1007F00088831E82DF91CF910895CF93DF93EC0120
:100800000E94101F0E94AD17813009F0EAC0CE018E
:100810000E94101F0E94B017833009F474C0C8F4FE
:10082000813009F466C0823009F0DBC0CE010E943D
:10083000101F60E00E94BC17FC0180818E83CE01F6
:100840000E94101F61E00E94BC17FC018081888714
:10085000C8C0853009F498C008F471C0863009F02A
:10086000C0C0CE010E94101F60E00E94BC17FC01B6
:1008700080818E83CE010E94101F61E00E94BC1710
:10088000FC0180818887CE010E94101F62E00E94D7
:10089000BC17FC0180818F83CE010E94101F63E092
:1008A0000E94BC17FC0180818987CE010E94101F25
:1008B00064E00E94BC17FC0180818A87CE010E94FF
:1008C000101F65E00E94BC17FC0120818B859C8570
:1008D000822B9C878B87CE010E94101F65E00E94AF
:1008E000BC17FC0121818B859C85922B9C878B8773
:1008F00078C0CE010E94101F60E00E94BC17FC016E
:1009000080818E836EC0CE010E94101F60E00E9425
:10091000BC17FC0180818E83CE010E94101F61E014
:100920000E94BC17FC0180818887CE010E94101FA5
:1009300062E00E94BC17FC0180818F8352C0CE010F
:100940000E94101F60E00E94BC17FC0180818E8312
:10095000CE010E94101F61E00E94BC17FC01808143
:100960008887CE010E94101F62E00E94BC17FC0124
:1009700080818F83CE010E94101F63E00E94BC170C
:10098000FC01808189872DC0CE010E94101F60E08C
:100990000E94BC17FC0180818E83CE010E94101F33
:1009A00061E00E94BC17FC0180818887CE010E9413
:1009B000101F62E00E94BC17FC0180818F83CE0172
:1009C0000E94101F63E00E94BC17FC018081898790
:1009D000CE010E94101F64E00E94BC17FC018081C0
:1009E0008A87DF91CF910895CF93DF93EC0161E285
:1009F0000E94ED1E88E892E0998388831F82188602
:100A000019861A861C861B86DF91CF910895CF9395
:100A1000DF93EC0165E00E94ED1E80E992E099838E
:100A20008883FE013A96CE018E5A9F4F1082118222
:100A30001282138214821582168217823896E81762
:100A4000F907A1F71E8218861F82DF91CF910895C2
:100A50002F923F924F925F926F927F928F929F92CE
:100A6000AF92BF92CF92DF92EF92FF920F931F93BC
:100A7000CF93DF93CDB7DEB760970FB6F894DEBFA4
:100A80000FBECDBF6B017C016E2D70E080E090E069
:100A90000E94AD2920E030E04FE753E40E94142982
:100AA0006F87788B89839A836D2D70E080E090E06A
:100AB0000E94AD2920E030E04FE753E40E94142962
:100AC0006B837C838D839E83C701B601772788273C
:100AD00099270E94AD2920E030E04FE753E40E94BF
:100AE00014296F83788789879A879B01AC016B8172
:100AF0007C818D819E810E945F2A18160CF4B5C1FD
:100B00002F81388549855A856F85788989819A81B1
:100B10000E945F2A18162CF00F81388429841A85C8
:100B200004C00F85388829801A812F81388549852E
:100B30005A856B817C818D819E810E94102987FD61
:100B4000A6C12F81388549855A856F857889898125
:100B50009A810E94102987FD08C08F818B87E885C4
:100B6000EC87F985FD878A8510C0FF85FB8788891A
:100B70008C87E981ED87FA81FE8708C08F858B8796
:100B8000E889EC87F981FD878A818E872B853C85F2
:100B90004D855E85602F732D822D912F0E94AB288D
:100BA0006B017C0120E030E0A901602F732D822DC4
:100BB000912F0E941029882359F0202F332D422D88
:100BC000512FC701B6010E9414292B013C0103C01B
:100BD000412C512C32012B853C854D855E85602F43
:100BE000732D822D912F0E941029882309F47DC036
:100BF0002F85388949815A81602F732D822D912F3D
:100C00000E941029811127C02F81388549855A8576
:100C10006B817C818D819E810E94AB28A70196010A
:100C20000E9414296B017C012F81388549855A85E2
:100C30006B817C818D819E810E94102987FF05C078
:100C400020E030E040EC50E403C020E030E0A901B7
:100C5000C701B6013DC02B813C814D815E81602F73
:100C6000732D822D912F0E941029811113C02F8581
:100C7000388949815A816F81788589859A850E9452
:100C8000AB28A70196010E94142920E030E040E043
:100C900050E41EC02F81388549855A85602F732DF9
:100CA000822D912F0E941029811116C02B813C8129
:100CB0004D815E816F85788989819A810E94AB28F8
:100CC000A70196010E94142920E030E040E850E49A
:100CD0000E94AC284B015C0120E030E040EC50E485
:100CE000C501B4010E94142903C060E070E0CB018B
:100CF00020E030E044EB53E40E94632A6B017C0166
:100D000020E030E0A9010E945F2A20E030E040E0CE
:100D10005FE387FD05C0C701B6010E94AC2804C08F
:100D2000C701B6010E94AB280E947C290E94AF290E
:100D30006B017C0120E030E044EB53E40E945F2A29
:100D4000181634F0C701B6010E9481294B0104C076
:100D500058E6852E9924939420E030E048EC52E444
:100D6000C301B2010E94632A6B017C0120E030E0E4
:100D7000A9010E945F2A20E030E040E05FE387FDA8
:100D800005C0C701B6010E94AC2804C0C701B60166
:100D90000E94AB280E947C290E94AF296B017C0134
:100DA00020E030E048EC52E40E945F2A181634F04C
:100DB000C701B6010E948129B62E02C044E6B42EB6
:100DC00020E030E048EC52E4602F732D822D912F0B
:100DD0000E94632A6B017C0120E030E0A9010E949F
:100DE0005F2A20E030E040E05FE387FD05C0C701F7
:100DF000B6010E94AC2804C0C701B6010E94AB280E
:100E00000E947C290E94AF296B017C0120E030E028
:100E100048EC52E40E945F2A181634F0C701B6016C
:100E20000E948129262F01C024E6C401A0E0B0E081
:100E3000772766277B29622B60960FB6F894DEBF72
:100E40000FBECDBFDF91CF911F910F91FF90EF901B
:100E5000DF90CF90BF90AF909F908F907F906F90DA
:100E60005F904F903F902F9008952B813C814D8152
:100E70005E816F85788989819A810E945F2A181620
:100E80000CF44FCE0B813C802D801E814ECE2B81E9
:100E90003C814D815E816F85788989819A810E942C
:100EA000102987FD6BCEEB81EB87FC81FC878D8160
:100EB0008D87EE81EE876ACECF93DF93EC01488376
:100EC00059836A837B83CB01BA01C2DD6C837D8346
:100ED0008E839F83DF91CF9108954F925F926F929F
:100EE0007F928F929F92AF92BF92CF92DF92EF92BA
:100EF000FF920F931F93CF93DF93CDB7DEB7289761
:100F00000FB6F894DEBF0FBECDBF4C010E94101F7C
:100F10000E94AD17813009F06AC0D40116968C93F7
:100F2000169717961C92C4010E94101F60E00E9441
:100F3000BC17FC01C080D12CE12CF12CC4010E9413
:100F4000101F60E00E94BC17DC0111964C90512CE0
:100F5000612C712C762C652C542C4424C4010E94E5
:100F6000101F60E00E94BC17FC018281B301A20146
:100F7000682B4C295D296E297F29CE0101969CDFC3
:100F800088E0FE013196D4019A9601900D928A95DF
:100F9000E1F7D40118968C91882309F446C1C40165
:100FA0000E94FE1E811141C1C4010E94F81EF4017D
:100FB000EE5AFF4F0190F081E02DD4019A962C91CA
:100FC0009A979B963C919B979C964C919C979D964B
:100FD0005C919D979E966C919E979F967C919F9712
:100FE000D0968C91D097D1969C9119951BC1823047
:100FF00009F01BC1C4010E94101F0E94B017893064
:1010000009F013C181E0F4018683878300E010E0DA
:10101000B12C68E0A62EC4010E94101F6B2D0E9407
:10102000BC17FC01C080D12CE12CF12CC4010E9422
:10103000101F6B2D0E94BC17DC0111964C90512C97
:10104000612C712C762C652C542C4424C4010E94F4
:10105000101F6B2D0E94BC17FC018281B301A201FD
:10106000682B4C295D296E297F29CE01019624DF4A
:10107000D401A00FB11FFE0131961A968A2D01905E
:101080000D928A95E1F7B394085F1F4FF9E0BF1204
:10109000C2CFD40119968C91882309F4C6C0C4012B
:1010A0000E94FE1E8111C1C0C4010E94F81EC4012D
:1010B0008C5A9F4FF401E65BFF4F2DB73EB7285087
:1010C00031090FB6F8943EBF0FBE2DBFADB7BEB706
:1010D000119628E001900D922A95E1F7F401EE5B5C
:1010E000FF4FADB7BEB718970FB6F894BEBF0FBE8F
:1010F000ADBF119628E001900D922A95E1F7EDB76A
:10110000FEB738970FB6F894FEBF0FBEEDBFADB770
:10111000BEB7119628E0F401FA9601900D922A9537
:10112000E1F72DB73EB7285031090FB6F8943EBF0E
:101130000FBE2DBFADB7BEB7119628E0F401F296F1
:1011400001900D922A95E1F7ADB7BEB718970FB68B
:10115000F894BEBF0FBEADBF119628E0F401BA9659
:1011600001900D922A95E1F7EDB7FEB738970FB6CB
:10117000F894FEBF0FBEEDBFADB7BEB7119628E025
:10118000F401B29601900D922A95E1F72DB73EB782
:10119000285031090FB6F8943EBF0FBE2DBFADB732
:1011A000BEB7119628E0F4017A9601900D922A9527
:1011B000E1F7DC01ED91FC91D4015296AC9052978D
:1011C0005396BC9053975496CC9054975596DC9078
:1011D00055975696EC9056975796FC905797589679
:1011E0000C91589759961C9159971A962C911A97C9
:1011F0001B963C911B971C964C911C971D965C91DD
:101200001D971E966C911E971F967C911F97509666
:101210008C91509751969C9119950FB6F894DEBF1A
:101220000FBECDBFC4010E94FB1E28960FB6F894D6
:10123000DEBF0FBECDBFDF91CF911F910F91FF9009
:10124000EF90DF90CF90BF90AF909F908F907F9066
:101250006F905F904F900895AF92CF92EF920F935F
:10126000CF93DF93EC010E94101F0E94AD178130D5
:10127000C1F5CE010E94101F60E00E94BC17FC0166
:1012800080818E838F81882361F1CE010E94FE1EB2
:10129000811127C0CE010E94F81E8E8183FBAA24F3
:1012A000A0F882FBCC24C0F881FBEE24E0F8082FE4
:1012B0000170282F221F2227221F86FB442740F976
:1012C00085FB662760F9E885F98582958170199517
:1012D000CE01DF91CF910F91EF90CF90AF900C9412
:1012E000FB1EDF91CF910F91EF90CF90AF900895BB
:1012F000CF93DF93EC016CE00E94ED1E88E992E051
:10130000998388831E821F82DF91CF910895FC010B
:101310008681829581700895FC01868185FB8827EE
:1013200080F90895FC01868186FB882780F908955D
:10133000FC018681881F8827881F0895FC0186810B
:1013400081700895FC018681869581700895FC0165
:10135000868182FB882780F90895FC01868183FBC2
:10136000882780F90895EF92FF920F931F93CF93F0
:10137000DF93EC010E94101F60E00E94BC17DC01AB
:101380008C91813009F001C1CE010E94101F61E0F3
:101390000E94BC17FC01E080F12CCE010E94101FBE
:1013A00061E00E94BC17DC0111968C91F82ACE01F5
:1013B0000E94101F0E94AD17FE0100E010E0A68100
:1013C000B781109709F4CEC012962D913C911397D6
:1013D0002E153F0509F0C6C014969C919813C2C003
:1013E0008930B9F118F4883041F0CFC08A3009F45F
:1013F0005CC08B3009F485C0C8C0CE010E94101FAC
:1014000062E00E94BC17FF24F394FC0180818111EB
:1014100001C0F12CF8013396EE0FFF1FEC0FFD1FFA
:1014200000811181D8015396FC92539755968C9167
:10143000882309F4AAC0CE010E94FE1E8111A5C016
:10144000CE010E94F81ED8015696ED91FC91579757
:1014500091C0CE010E94101F62E00E94BC17FF24C1
:10146000F394FC018081811101C0F12CF8013396C5
:10147000EE0FFF1FEC0FFD1F00811181D801529666
:10148000FC92529753968C91882309F47EC0CE012A
:101490000E94FE1E811179C0CE010E94F81ED80163
:1014A0005496ED91FC91559765C0CE010E94101F96
:1014B00062E00E94BC17FF24F394FC01808181113B
:1014C00001C0F12CF8013396EE0FFF1FEC0FFD1F4A
:1014D00000811181D8015096FC9250971F968C91F3
:1014E000882309F452C0CE010E94FE1E81114DC016
:1014F000CE010E94F81ED8015196ED91FC915297B1
:1015000039C0CE010E94101F62E00E94BC17FC018E
:10151000E080F12CCE010E94101F62E00E94BC17F7
:10152000DC0111968C91F82AF8013396EE0FFF1F1B
:10153000EC0FFD1F00811181F801F786E686808996
:10154000882319F1CE010E94FE1E81111EC0CE011A
:101550000E94F81ED8015196ED91FC915297C70157
:1015600019950AC00F5F1F4F32960032110509F01E
:1015700026CF0BC08F2D1995CE01DF91CF911F91F2
:101580000F91FF90EF900C94FB1EDF91CF911F9174
:101590000F91FF90EF900895CF93DF93EC0168E2F5
:1015A0000E94ED1E80EA92E09983888320E030E07B
:1015B000FE01E20FF31F178216822E5F3F4F203489
:1015C0003105B1F7DF91CF910895FF920F931F93EB
:1015D000CF93DF93EC010E94101F0E94AD17F82EED
:1015E00081E0F81223C0CE010E94101F60E00E942B
:1015F000BC178C01CE010E94101FB8010E94D517A4
:101600006E837F8388879987CE010E94101F61E0D7
:101610000E94BC178C01CE010E94101FB8010E94CD
:10162000D5176A877B878C879D87FE868F85882361
:10163000D9F0CE010E94FE1E811116C0CE010E947B
:10164000F81E2A853B854C855D856E817F81888566
:101650009985E889F9891995CE01DF91CF911F917C
:101660000F91FF900C94FB1EDF91CF911F910F9172
:10167000FF900895CF93DF93EC016CE10E94ED1E83
:1016800088EA92E0998388831E821F8218861986D1
:101690001A861B861C861D861E861F86DF91CF91AB
:1016A0000895EF92FF920F931F93CF93DF93EC0176
:1016B0000E94101F0E94AD17813009F056C0CE0164
:1016C0000E94101F60E00E94BC178C01CE010E9496
:1016D000101FB8010E94D5176E837F838887998772
:1016E000CE010E94101F61E00E94BC178C01CE0148
:1016F0000E94101FB8010E94D5176A877B878C87CC
:101700009D87CE010E94101F62E00E94BC178C01D1
:10171000CE010E94101FB8010E94D5176E877F87E7
:10172000888B998B8A89882301F1CE010E94FE1E45
:1017300081111BC0CE010E94F81EEE84FF8408892F
:1017400019892A853B854C855D856E817F818885D9
:101750009985EB89FC891995CE01DF91CF911F9175
:101760000F91FF90EF900C94FB1EDF91CF911F9192
:101770000F91FF90EF900895CF93DF93EC0164E118
:101780000E94ED1E80EB92E0998388831E821F8267
:10179000188619861A861B861C861D861E861F863D
:1017A000188A198A1A8ADF91CF910895EF92FF92D1
:1017B0000F931F93CF93DF93EC010E94101F0E94A1
:1017C000AD17813009F056C0CE010E94101F60E0B5
:1017D0000E94BC178C01CE010E94101FB8010E940C
:1017E000D5176E837F8388879987CE010E94101F4B
:1017F00061E00E94BC178C01CE010E94101FB8014D
:101800000E94D5176A877B878C879D87CE010E94AF
:10181000101F62E00E94BC178C01CE010E94101FB5
:10182000B8010E94D5176E877F87888B998B8A892C
:10183000882301F1CE010E94FE1E81111BC0CE0142
:101840000E94F81EEE84FF84088919892A853B8549
:101850004C855D856E817F8188859985EB89FC89C2
:101860001995CE01DF91CF911F910F91FF90EF90CD
:101870000C94FB1EDF91CF911F910F91FF90EF9081
:101880000895CF93DF93EC016EE00E94ED1E88EB8C
:1018900092E0998388831E821F82188619861A8691
:1018A0001B861C861D861E861F86188A198A1A8A20
:1018B000DF91CF910895CF92DF92EF92FF920F9335
:1018C0001F93CF93DF936C017B01EB010990002004
:1018D000E9F72197C61BD70BB9F184E090E00E948D
:1018E000AB278C01FC011382CF3FD10519F014F016
:1018F000CFEFD0E0F801C083F282E18284E090E093
:101900000E94AB27FC01138222E02083C6010396CC
:10191000928381831F930F93FF93EF932F93C1E0E3
:10192000CF931F9289E28F9385EB96E09F938F93DD
:101930000E943818F601C0838DB79EB70A960FB67D
:10194000F8949EBF0FBE8DBFDF91CF911F910F9175
:10195000FF90EF90DF90CF900895CF93DF93EC014D
:10196000888181110AC069817A81CE01A4DF8981D1
:101970009A81DF91CF910C94BF2BDF91CF91089585
:10198000FC01848190E0982F88272381822B089581
:101990000F931F93CF93DF9300D0CDB7DEB78C01A9
:1019A00081E0F80181838081882361F082859385BD
:1019B000892B41F080859185009721F06B830E94EF
:1019C000BF2B6B81F8011082118610861686178650
:1019D000108A118A1386128613821282148215824B
:1019E00016821782848595859A838983662311F1EF
:1019F00084E090E00E94AB27FC01138282E08083A8
:101A0000CE01019692838183FF93EF9381E08F93C0
:101A100081E18F931F9289E28F9385EB96E09F93EC
:101A20008F930E943818F801128A0FB6F894DEBF1F
:101A30000FBECDBF0F900F900F90DF91CF911F91F0
:101A40000F9108952F923F924F925F926F927F92E3
:101A50008F929F92AF92BF92CF92DF92EF92FF92BE
:101A60000F931F93CF93DF93CDB7DEB76C970FB66D
:101A7000F894DEBF0FBECDBF8C012DB73EB73A8FB5
:101A8000298F0E94101F0E94AD178D8B81508E8B65
:101A9000833040F03D89353029F0832F87508530E1
:101AA00008F080C0C8010E94101F60E00E94BC17AF
:101AB000DC018C90912CC8010E94101F60E00E94F4
:101AC000BC17FC018181982A2E89223008F048C079
:101AD000C8010E94101F61E00E94BC17DC018C91BC
:101AE000682E712CC8010E94101F61E00E94BC1773
:101AF000FC018181782AC8010E94101F62E00E94C7
:101B0000BC17DC01CC90D12CE12CF12CC8010E9437
:101B1000101F62E00E94BC17FC012180822D90E022
:101B2000A0E0B0E02224382E492E5A2EC8010E948F
:101B3000101F62E00E94BC17DC0112968C91482AAB
:101B40002C283D284E285F28C8010E94101F62E003
:101B50000E94BC17FC018381582AC12CD12C14C0CF
:101B60002D89283051F4C8010E94101F61E00E94A5
:101B7000BC17DC01CC90D12C02C0C12CD12C612C23
:101B8000712C212C312C21015801E12CF12CF50173
:101B900081859285009709F43FC0F2DE881599058A
:101BA000D9F546C02D89263009F03AC3D8011696DA
:101BB0008C91882309F434C3C8010E94101F60E08F
:101BC0000E94BC17FC01E080C8010E94101F60E069
:101BD0000E94BC17DC011196FC90C8010E94101FE6
:101BE00061E00E94BC17FC01D080C8010E94FE1E6B
:101BF000811116C3C8010E94F81E6D2D70E08E2D54
:101C000090E0D8011796ED91FC9118979F291995AE
:101C1000C8010E94FB1E04C3BFEFEB1AFB0AE2E0FF
:101C2000AE0EB11CF4E1EF16F10409F0B0CFF8C22A
:101C3000EE0CFF1CF801EE0DFF1D0184F285E02D76
:101C4000858580FF03C02D89213011F181FF03C0FC
:101C50003D893230E9F080A182FFE1C02D89293031
:101C600009F0DDC0808D918D892B89F186858823CF
:101C700071F186899789009751F10E94BF2BF80175
:101C8000EE0DFF1D0184F285E02D178A168A1FC014
:101C900060E0CF010E967CDE33E03F8B2E89223050
:101CA00008F072C02114310441045104E1F4F80138
:101CB000EE0DFF1D0184F285E02D81E086871786F9
:101CC000718A608A228A338A448A558A61C0F801FF
:101CD000EE0DFF1D0184F285E02D8685882309F431
:101CE0009CC231E03F8BC8010E94101F6F890E9487
:101CF000B3178E8BC82ED12CC114D104D9F1C601D3
:101D000001960E94272B4C019C01A12CB12CC801EB
:101D10002B8F3C8F0E94101F6F890E94BC178A0D69
:101D20009B1DDC018C912B8D3C8DF90181939F01D2
:101D3000FFEFAF1ABF0AAC14BD044CF3F401EC0D75
:101D4000FD1D1082F801EE0DFF1D0184F285E02DCE
:101D5000D18EC08E848D958DA68DB78D2E89820FE4
:101D6000911DA11DB11D848F958FA68FB78F978A66
:101D7000868A0AC0F801EE0DFF1D0184F285E02D70
:101D8000118E108E178A168A3D89393009F08FCF4F
:101D9000C8010E94FE1E811143C26801CE0CDF1CE7
:101DA000D6011996ED91FC911A97858580FF11C097
:101DB0002D89213071F4C8010E94F81ED6011996B0
:101DC0008D919C911A97DC011596ED91FC911697D7
:101DD00012C081FF13C02D89223081F4C8010E94F6
:101DE000F81EF801EE0DFF1D81859285DC01179626
:101DF000ED91FC9118970E9619950ACF80A182FF5C
:101E00000FC2C8010E94F81EF801EE0DFF1D81856A
:101E10009285DC019196ED91FC919297ECCFC801EF
:101E20000E94FE1E8111FCC15801AE0CBF1CD501E1
:101E30001996ED91FC911A97858582FF0FC02D8927
:101E4000233061F4C8010E94F81ED5011996ED9166
:101E5000FC911A970184F285E02D11C083FF11C017
:101E60002D89253071F4C8010E94F81EF801EE0D8D
:101E7000FF1D0184F285E02D0384F485E02D199582
:101E8000C7CE80A181FF11C03D89383071F4C801EF
:101E90000E94F81EF801EE0DFF1D0184F285E02D71
:101EA00005A0F6A1E02DC601A7CF80FF82C02D8935
:101EB000273009F07EC02DB63EB6C8010E94101F23
:101EC00061E00E94B317682E712CC3010196ADB773
:101ED000BEB7A81BB90B0FB6F894BEBF0FBEADBFFF
:101EE000EDB7FEB731965F014F01C12CD12CC6145E
:101EF000D7048CF4C8010E94101F61E00E94BC1737
:101F00008C0D9D1DDC018C91F40181934F01FFEF3D
:101F1000CF1ADF0AECCFF501E60DF71D1082C801DC
:101F20000E94101F62E00E94B317482E512CC2017C
:101F300001962DB73EB7281B390B0FB6F8943EBF5C
:101F40000FBE2DBF8DB79EB701964C013C01C12C31
:101F5000D12CC414D5048CF4C8010E94101F62E077
:101F60000E94BC178C0D9D1DDC018C91F3018193A7
:101F70003F01FFEFCF1ADF0AECCFF401E40DF51DAE
:101F80001082C8010E94F81EF801EE0DFF1D0184A9
:101F9000F285E02D03A0F4A1E02DB401C50119954F
:101FA000C8010E94FB1E0FB6F8943EBE0FBE2DBEA8
:101FB00037C18D898A50823008F032C1C8010E9431
:101FC000101F62E0D9D7DC018C90C8010E94101F5D
:101FD00062E0D2D7FC01D180C8010E94101FC0D797
:101FE000682E712CFCE06F1671040CF019C1CE0143
:101FF000019694D1912C9D2823E0C22ED12CC61499
:10200000D7040CF067C0C6010397940102C0359550
:1020100027958A95E2F720FF45C02DB73EB7388F48
:102020002F8BCE8AC8010E94101F6C2D9CD7282EA2
:10203000312CC1010196ADB7BEB7A81BB90B0FB6C5
:10204000F894BEBF0FBEADBFEDB7FEB731962F01FE
:102050009F01A12CB12CA214B304A4F4C8012B8FAE
:102060003C8F0E94101F6E8987D78A0D9B1DDC0153
:102070008C912B8D3C8DF90181939F01FFEFAF1A5D
:10208000BF0AE9CFF201E20DF31D1082B201CE01C9
:1020900001967DD12F89388D0FB6F8943EBF0FBEC3
:1020A0002DBF14C0C8010E94101F6C2D65D7DC0124
:1020B000AC90B12CC8010E94101F6C2D5DD7FC01A3
:1020C0008181B501782BCE0101962ED1FFEFCF1A79
:1020D000DF0A95CFF801EE0DFF1D0184F285E02D9A
:1020E00080A183FF4FC02D892A3009F04BC08DB6E7
:1020F0009EB6C8010E94101F61E035D7482E512CB2
:10210000C2010196ADB7BEB7A81BB90B0FB6F894C4
:10211000BEBF0FBEADBFEDB7FEB731965F013F0149
:10212000C12CD12CC414D50484F4C8010E94101F02
:1021300061E022D78C0D9D1DDC018C91F301819310
:102140003F01FFEFCF1ADF0AEDCFF501E40DF51DDA
:102150001082C8010E94F81EF801EE0DFF1D0184D7
:10216000F285E02D07A0F0A5E02DB501CE01019686
:102170001995C8010E94FB1E0FB6F8949EBE0FBEB3
:102180008DBE47C084FF45C02D892B3009F041C06A
:10219000C8010E94101F61E0EFD6DC014C90512C69
:1021A000612C712CC8010E94101F61E0E5D6FC0172
:1021B0008180912CA12CB12CBA2CA92C982C88248C
:1021C000C8010E94101F61E0D7D6DC0112968C91E5
:1021D000A82A84289528A628B728C8010E94101F7D
:1021E00061E0CAD6FC018381B82AC8010E94F81EAA
:1021F000F801EE0DFF1D0184F285E02D01A4F2A58A
:10220000E02DB501A401CE0101961995C8010E94E7
:10221000FB1ECE0101961BD103C021E02F8B3ECDCA
:10222000298D3A8D0FB6F8943EBF0FBE2DBF6C9628
:102230000FB6F894DEBF0FBECDBFDF91CF911F91D7
:102240000F91FF90EF90DF90CF90BF90AF909F9055
:102250008F907F906F905F904F903F902F90089558
:10226000CF93DF93EC0169E20E94ED1E80EC92E0D7
:10227000998388831E8280E090E0FE01E80FF91FB9
:1022800012861186029688329105B9F7DF91CF91B7
:102290000895FC017283618310820895EF92FF928A
:1022A0000F931F93CF93DF938C017B01EB01099078
:1022B0000020E9F72197C61BD70BCE0101960E949B
:1022C000272BD80114969C938E931397F70120E047
:1022D00030E0D80113968D919C9114972C173D07EF
:1022E00044F44191DC01A20FB31F4C932F5F3F4F89
:1022F000F0CFC80FD91F188281E08C93DF91CF9166
:102300001F910F91FF90EF900895FC0120812223EF
:1023100021F0838194810C94BF2B0895FC011182DC
:102320001082138212820895EF92FF920F931F93EF
:10233000CF93DF931F921F92CDB7DEB77C01DC01F4
:102340008D919C910897CCF485E090E069837A8325
:102350000E94AB278C0169817A819BDFD701ED91C7
:10236000FC911197CF0101968D939C933296EE0FBD
:10237000FF1FEE0DFF1D11830083C7010F900F900B
:10238000DF91CF911F910F91FF90EF900895EF9201
:10239000FF920F931F93CF93DF931F921F92CDB79E
:1023A000DEB77C01DC018D919C910897CCF485E02F
:1023B00090E069837A830E94AB278C0169817A81DE
:1023C0006DDFD701ED91FC911197CF0101968D93AF
:1023D0009C933296EE0FFF1FEE0DFF1D11830083BD
:1023E000C7010F900F90DF91CF911F910F91FF9038
:1023F000EF900895CF92DF92EF92FF920F931F9389
:10240000CF93DF93EC017C0100E010E0888199819B
:10241000081719078CF4F701C480D580C114D104C2
:1024200029F0C60172DFC6010E94AC270F5F1F4F63
:10243000F2E0EF0EF11CEACF19821882DF91CF9102
:102440001F910F91FF90EF90DF90CF900895D2CF22
:10245000CF93DF93EC010E94101F7FD58130E1F410
:10246000CE010E94101F60E087D5FC0180818E8321
:102470008F81882389F0CE010E94FE1E81110CC03D
:10248000CE010E94F81EE885F9858E811995CE014E
:10249000DF91CF910C94FB1EDF91CF910895CF93E4
:1024A000DF93EC0162E20E94ED1E88EC92E09983DA
:1024B00088831E821F82DF91CF910895CF93DF938F
:1024C000EC010E94101F49D5813029F5CE010E94F0
:1024D000101F60E051D5FC0180818E83CE010E94E7
:1024E000101F61E049D5FC0180818F838885882396
:1024F00091F0CE010E94FE1E81110DC0CE010E94FE
:10250000F81EE985FA856F818E811995CE01DF91DC
:10251000CF910C94FB1EDF91CF910895CF93DF9361
:10252000EC0169E00E94ED1E80ED92E099838883C2
:102530001E821F821886DF91CF910895CF93DF937B
:10254000EC0121E14FE067E106960E948E1C67E1F5
:10255000CE010E94ED1E88ED92E099838883DF9181
:10256000CF910895CF92DF92EF92FF920F931F9336
:10257000CF93DF93EC010E94101FEFD4813009F05C
:102580006EC01E821F8218861986CE010E94101FFF
:1025900060E0F2D4FC01408150E060E070E04A87E6
:1025A0005B876C877D87CE010E94101F60E0E4D4BA
:1025B000FC01418150E060E070E04E875F87688BEE
:1025C000798BCE010E94101F60E0D6D4FC010281FD
:1025D00010E020E030E00A8B1B8B2C8B3D8B4A8572
:1025E0005B856C857D85CE80DF80E884F9844C290D
:1025F0005D296E297F29CE84DF84E888F988FE2C46
:10260000ED2CDC2CCC244C295D296E297F299801E6
:1026100011270027402B512B622B732B4E835F8396
:10262000688779878E898823D1F0CE010E94FE1EAB
:10263000811115C0CE010E94F81E6E817F818885B0
:102640009985EF89F88D1995CE01DF91CF911F9172
:102650000F91FF90EF90DF90CF900C94FB1EDF91D5
:10266000CF911F910F91FF90EF90DF90CF90089541
:10267000CF93DF93EC0160E10E94ED1E80EE92E0CB
:10268000998388831E821F82188619861E8ADF918D
:10269000CF910895EF92FF920F931F93CF93DF9303
:1026A000EC010E94101F59D4813009F050C0CE01B6
:1026B0000E94101F60E060D48C01CE010E94101FA8
:1026C000B80173D46E837F8388879987CE010E9477
:1026D000101F61E051D48C01CE010E94101FB8017F
:1026E00064D46A877B878C879D87CE010E94101FE8
:1026F00062E042D48C01CE010E94101FB80155D473
:102700006E877F87888B998B8A89882301F1CE0118
:102710000E94FE1E81111BC0CE010E94F81EEE8495
:10272000FF84088919892A853B854C855D856E81E2
:102730007F8188859985EB89FC891995CE01DF9188
:10274000CF911F910F91FF90EF900C94FB1EDF91A2
:10275000CF911F910F91FF90EF900895CF93DF934A
:10276000EC016AE00E94ED1E88EE92E09983888376
:102770001E821F82188619861A861B861C861D8655
:102780001E861F86188A198A1A8ADF91CF910895AA
:10279000CF93DF93EC010E94101FDFD38130E9F467
:1027A0001E82CE010E94101F60E0E6D3FC018081F2
:1027B0008E838F81882389F0CE010E94FE1E8111B5
:1027C0000CC0CE010E94F81EE885F9858E8119950E
:1027D000CE01DF91CF910C94FB1EDF91CF91089534
:1027E000CF93DF93EC0168E10E94ED1E80EF92E051
:1027F000998388831E821F82DF91CF910895FC0107
:1028000011821382128215821482668310820895C7
:10281000FC0111821382128215821482168281E0D9
:10282000808308952F923F924F925F926F927F9292
:102830008F929F92AF92BF92CF92DF92EF92FF92D0
:102840000F931F93CF93DF93CDB7DEB76C012DB6F7
:102850003EB60E94101F81D3813009F0F9C0D60125
:102860001A968C911A97882321F019968C918111D0
:1028700047C24DB65EB681E0F6018783C6010E946D
:10288000101F60E070D3F82EA82EB12C2DB73EB7E4
:102890002A193B090FB6F8943EBF0FBE2DBF8DB766
:1028A0009EB701963C01A114B10409F039C0C601DC
:1028B0000E94101F61E060D3DC010C9110E0C601A2
:1028C0000E94101F61E058D3FC018181182BC601C2
:1028D0000E94101F62E050D3DC01EC90C6010E9400
:1028E000101F63E049D3FC018080912CC6010E9437
:1028F000101F63E041D3DC0111968C91982AF601F8
:10290000A384B484A114B10401F1C501C1D2C501ED
:102910000E94AC27D6011C961C921E921B9715C0D4
:102920004C0100E010E0C6010E94101F60E024D3BB
:10293000800F911FDC018C91F40181934F010F5F97
:102940001F4F0A151B057CF3B2CF83E190E00E9474
:10295000AB275C0194014F2DB30104D2F601B4867C
:10296000A386D5011A96FC920384F485E02D818517
:10297000811106C0F6018085882309F463C05CC01C
:10298000C6010E94101FECD204E010E0682E712CEA
:10299000061517057CF75801F4E0AF1AB108B50128
:1029A000D6011B968D919C911C975CD27C01C6012F
:1029B0000E94101F602FE0D2FC018081D701119688
:1029C0008C93B501F601838594854CD24C01C601E8
:1029D0000E94101F602FD0D2DC011196EC90F12CD8
:1029E000C6010E94101F602FC7D2FC018281F82A05
:1029F000D4011396FC92EE921297B501F6018385ED
:102A0000948530D27C01C6010E94101F602FB4D281
:102A1000DC011396AC90B12CC6010E94101F602FF0
:102A2000ABD2FC018481B82AD7011596BC92AE9234
:102A300014970F5F1F4FACCFC6010E94FE1E882364
:102A400009F44DC10FB6F8945EBE0FBE4DBE58C11D
:102A5000823081F5F6018681882309F451C1C601CF
:102A60000E94FE1E81114CC1C6010E94101F60E031
:102A700083D2FC011081C6010E94F81ED6011D966A
:102A8000ED91FC911E97812F1995C601DF91CF9191
:102A90001F910F91FF90EF90DF90CF90BF90AF907C
:102AA0009F908F907F906F905F904F903F902F906E
:102AB0000C94FB1E843009F060C0D6011B96ED918A
:102AC000FC911C97309709F41BC18281882309F47B
:102AD00017C1C6010E94FE1E811112C1ADB6BEB65D
:102AE000C6010E94101F60E047D2FC015080C60161
:102AF0000E94101F61E037D2682E712CC30101962D
:102B00002DB73EB7281B390B0FB6F8943EBF0FBE4A
:102B10002DBF8DB79EB701967C014C0100E010E0FF
:102B2000061517057CF4C6010E94101F61E024D22F
:102B3000800F911FFC018081D4018D934D010F5FA7
:102B40001F4FEECFF701E60DF71D1082C6010E9460
:102B5000F81ED6011B96ED91FC911C970784F08915
:102B6000E02DB701852D1995C6010E94FB1E0FB6F9
:102B7000F894BEBE0FBEADBEC3C0833009F050C0D6
:102B8000D6011B96ED91FC911C97309709F4B8C0C3
:102B90008081882309F4B4C0C6010E94FE1E811101
:102BA000AFC08DB69EB6C6010E94101F60E0E4D192
:102BB000DC014C90C6010E94101F61E0D4D1582E58
:102BC000A82EB12CEDB7FEB7EA19FB090FB6F894A1
:102BD000FEBF0FBEEDBF0DB71EB70F5F1F4F7801D1
:102BE000612C712CC6016A147B047CF40E94101FB6
:102BF00061E0C2D1860D971DFC018081D7018D93C4
:102C00007D01BFEF6B1A7B0AEDCF0E94F81ED60143
:102C10001B96ED91FC911C970584F685E02D52C022
:102C2000853009F06DC0D6011B96ED91FC911C9783
:102C3000309709F465C08181882309F461C0C60119
:102C40000E94FE1E81115CC08DB69EB6C6010E9418
:102C5000101F60E091D1DC014C90C6010E94101F52
:102C600061E081D1582EA82EB12CEDB7FEB7EA193C
:102C7000FB090FB6F894FEBF0FBEEDBF0DB71EB730
:102C80000F5F1F4F7801612C712CC6016A147B0401
:102C90007CF40E94101F61E06FD1860D971DFC012E
:102CA0008081D7018D937D01BFEF6B1A7B0AEDCF39
:102CB0000E94F81ED6011B96ED91FC911C9701888D
:102CC000F289E02D452DB801842D1995C6010E9489
:102CD000FB1E0FB6F8949EBE0FBE8DBE11C0C6017E
:102CE0000E94F81ED6011F96ED91FC9150971B96FD
:102CF0008D919C911C971995C6010E94FB1EA2CE36
:102D00000FB6F8943EBE0FBE2DBEDF91CF911F913E
:102D10000F91FF90EF90DF90CF90BF90AF909F907A
:102D20008F907F906F905F904F903F902F9008957D
:102D3000CF93DF93EC0166E10E94ED1E88EF92E0F5
:102D4000998388831E821F82188619861A861C869C
:102D50001B86DF91CF9108958BE996E075C08BE9D2
:102D600096E096C08F929F92AF92BF92CF92DF92E1
:102D7000EF92FF920F931F93CF93DF931F921F92B7
:102D8000CDB7DEB74C015901DC011C9211961C92A3
:102D9000119712961C92129714961C921E921397DA
:102DA000442379F0C42ED12CC60169837A830E9412
:102DB000272BF40194838383A60169817A810E9481
:102DC000952DD4011696BC92AE92159718961C9329
:102DD0000E9317971996EC92EE2039F18E2D90E014
:102DE000880F991F0E94272BF4019487838700E0A6
:102DF00010E0F401818590E008171907B4F487E02A
:102E000090E00E94AB277C01602FF9DCC801880F9D
:102E1000991FD4011B96ED91FC911C97E80FF91FA7
:102E2000F182E0820F5F1F4FE4CF0F900F90DF9190
:102E3000CF911F910F91FF90EF90DF90CF90BF90B7
:102E4000AF909F908F900895FC01108211821282A2
:102E500014821382168215821086178211861486B8
:102E600013860895DC0119962C91199730E06217AA
:102E700073075CF4660F771F1B96ED91FC911C970E
:102E8000E60FF71F8081918108958EEA96E00895FC
:102E90000F931F93CF93DF93EC0189858823D9F09B
:102EA0008B859C85892BB9F000E010E0298530E006
:102EB0008B859C850217130764F4F801EE0FFF1F42
:102EC000E80FF91F808191810E94AC270F5F1F4F8F
:102ED000EDCF0E94BF2B8B819C81009731F0DF9159
:102EE000CF911F910F910C94BF2BDF91CF911F9128
:102EF0000F9108958EEA96E08BCCFC01148615861E
:102F000016861786108A118A128A178A13861482E7
:102F1000158210922D07128616821782108611864E
:102F2000089582E497E09093D7068093D60626E032
:102F30000C949326E0913307EA3259F021E02E0FEA
:102F400020933307F0E0EE0FFF1FE852F94F918313
:102F500080830895FC0184850895FC018685089589
:102F6000FC0182890895DC015596ED91FC915697FC
:102F7000E60FF11D8081089570E0DC015596ED911A
:102F8000FC915697E60FF71F2081222359F0660F18
:102F9000771F5396ED91FC915497E60FF71F8081B0
:102FA0009181089580E090E00895FC01DB018C910F
:102FB000808311968C911197818312968C91129730
:102FC000828313968C918383608171818281938146
:102FD00008950F931F93CF93DF93EC011A868C8192
:102FE0008823D9F000E010E02B8530E08B899C89A4
:102FF0000217130774F4F801EE0FFF1FE80FF91F13
:1030000080819181009711F00E94BF2B0F5F1F4FAD
:10301000EBCF1B860E94BF2B1C828D81882329F059
:103020008D899E890E94BF2B1D82DF91CF911F91B8
:103030000F91089580912E07882329F080912D0704
:1030400091E08927089580E0089520E130E040E094
:1030500050E060E070E0CB010E94F727262F20951A
:1030600080E1289F90011124862F8F70822B089574
:103070006F927F928F929F92AF92BF92CF92DF9288
:10308000EF92FF920F931F93CF93DF93CDB7DEB7ED
:103090006E970FB6F894DEBF0FBECDBF08A919A971
:1030A000BAA8ADA80E949223C0902F07D0903007F5
:1030B000E0903107F0903207BB2009F45FC0209107
:1030C0002C07222309F45AC0C114D104E104F104ED
:1030D00009F454C0AB01BC014C195D096E097F09AC
:1030E0004F5F5F4F6F4F7F4F483C51056105710542
:1030F00008F044C020912E0788ECC80ED11CE11CBA
:10310000F11C222391F1CE010196F7DECE0101964A
:1031100078D60E9492236C157D058E059F0508F4D4
:1031200006C18B85811103C128C0F80182858823DF
:1031300029F18091D6069091D706DC01ED91FC91A2
:103140000480F581E02D1995892B79F08091D606C0
:103150009091D706DC01ED91FC910680F781E02D7E
:103160001995BC0185EB96E069D20E9492236C15FB
:103170007D058E059F05E8F2D8CF4BD681E0809380
:103180002C077E01F6E3EF0EF11C8091D60690919C
:10319000D706DC01ED91FC910190F081E02D6FEFFD
:1031A00019958091D6069091D706DC01ED91FC919E
:1031B0000190F081E02D6BE019958091D6069091F9
:1031C000D706DC01ED91FC910190F081E02D6B2D93
:1031D0001995E091D606F091D7060190F081E02D87
:1031E000C080D180C80131DF682F8091D6069091D0
:1031F000D706F60119958091D6069091D706DC0185
:10320000ED91FC910190F081E02D6CA919958091D0
:10321000D6069091D706DC01ED91FC910190F081EA
:10322000E02D6A2D19958091D6069091D706DC0184
:10323000ED91FC916A2D60950190F081E02D19953A
:10324000C12CD12C8A2C912C8091D6069091D70636
:10325000C814D9040CF052C03701B2E06B0E711CD7
:10326000F70100811181DC01ED91FC910190F08169
:10327000E02DD8016C9119958091D6069091D706D2
:10328000DC01ED91FC91D8016C9160950190F08189
:10329000E02D1995E12CF12CD8018C9190E0E816E5
:1032A000F906B4F48091D6069091D706FC012081EE
:1032B0003181F801A181B281AE0DBF1DF9012081DC
:1032C00031816C91F9011995FFEFEF1AFF0AE4CFF4
:1032D0000115110571F013968C911397882331F025
:1032E00011968D919C9112970E94BF2BC8010E944C
:1032F000AC27BFEFCB1ADB0A7301A6CFDC01ED913F
:10330000FC910190F081E02D60E01995BB2069F1FE
:103310000E9492236F5F7F4F8F4F9F4F60932F07C5
:103320007093300780933107909332071EC08091CD
:10333000D6069091D706DC01ED91FC910480F581D1
:10334000E02D1995892B09F4E4CE8091D606909151
:10335000D706DC01ED91FC910680F781E02D1995EF
:10336000BC01CE0101966AD1D4CE6E960FB6F89408
:10337000DEBF0FBECDBFDF91CF911F910F91FF90A8
:10338000EF90DF90CF90BF90AF909F908F907F9005
:103390006F900895CF93DF931F9222E02F931F9297
:1033A0001F929F938F9364DE81E0809335070F9087
:1033B0000F900F900F900F900F908091D3069091E7
:1033C000D406892BD9F0C0E0D0E02091D50630E0BA
:1033D0008091D3069091D406C217D3075CF4FE0106
:1033E000EE0FFF1FE80FF91F808191810E94AD0C45
:1033F0002196EBCF0E94BF2B1092D506DF91CF9183
:103400000895CF93DF93EC018091350781110CC0B3
:1034100040E052EC61E070E0CE0183DD10923407B1
:10342000CE01DF91CF91B6CFDF91CF910895AF92CA
:10343000BF92CF92DF92EF92FF920F931F93CF93A1
:10344000DF931F92CDB7DEB78C01DC011E968C9105
:103450001E97823079F416961C92169717968C91C7
:103460001797882309F481C05896ED91FC915997DC
:1034700080E00CC0813061F4F80186838781882365
:1034800009F473C0008CF18DE02D81E019956DC0B9
:10349000833079F41F9281E08F931F921F921F93C4
:1034A0000F93E6DD0F900F900F900F900F900F90FD
:1034B0005CC0853009F059C060E0C8015DDD4BE0BB
:1034C00050E0BC018CEF92E00E94882D892B09F01E
:1034D0004CC01982D8015596ED91FC915697A18068
:1034E000B12CE12CF12CC12CD12CEA14FB046CF48E
:1034F00061E0C80141DD8E0D9F1DFC018081C80E79
:10350000D11CFFEFEF1AFF0AF0CFC98284E090E0F0
:103510000E94AB277C01DC0113961C92139781E07B
:103520008C93CE01019612969C938E93119784E012
:1035300090E00E94AB27FC01138287E1808388E042
:1035400093E092838183FF92EF92FF93EF9382E067
:103550008F9385E08F931F921F921F930F9388DDA7
:103560000FB6F894DEBF0FBECDBF0F90DF91CF91A5
:103570001F910F91FF90EF90DF90CF90BF90AF9091
:1035800008950F931F93CF93DF932091C1062223B9
:1035900029F008ED16E0C0E0D0E005C0DF91CF9142
:1035A0001F910F9144CF8091330790E0C817D9073E
:1035B0006CF4D8018D919D918D01DC01ED91FC9110
:1035C0000190F081E02D19952196EDCFDF91CF91FB
:1035D0001F910F910895CF93DF93EC012BDD8111A3
:1035E00011C081E080932E071F9283E08F931F927A
:1035F0001F92DF93CF933CDD0F900F900F900F90B1
:103600000F900F90DF91CF910895CF93DF93EC014E
:1036100011DD882381F010922E071F9284E08F9392
:103620001F921F92DF93CF9323DD0F900F900F9087
:103630000F900F900F90DF91CF910895CF92DF926E
:10364000EF92FF920F931F93CF93DF93EC016F3FA5
:103650008FEF780709F41BC19A8591110CC06F3F59
:10366000710549F4CE01B5DC81E08A871C8A1B8A8A
:103670001E8A1D8A0BC18F85843041F4992309F479
:1036800006C1198A188A6A8B85E000C1853019F550
:10369000992309F4FCC02A89022F10E08FEF90E0F3
:1036A000801B910B8617970709F0CDC0211102C02E
:1036B00089E0ECC0C801880F991F0E94272B9C8BC2
:1036C0008B8BFF24F394FC82C8010E94272B9E8BD6
:1036D0008D8BFD8272C0863051F4992309F4D7C0D6
:1036E0008889ED89FE89E80FF11D6083CDC08730A0
:1036F000D1F5992309F4CBC0488950E0ED89FE89C2
:10370000E40FF51FE0818E2F90E02FEF30E0281BB3
:10371000390B2617370709F096C09A01220F331F7D
:103720004B895C89EE2359F08A01020F131F0E9416
:10373000272BF801918380838F858F5F0FC0FA015B
:10374000E20FF31F11821082198A88898F5F888B9C
:103750009A89891302C089E001C086E08F878B8532
:103760008F5F8B8794C0883051F5992309F48FC0FF
:1037700088892B899C89E22FF92FE80FF11DE80F2A
:10378000F11D80819181009741F0298931E0320F4C
:10379000398BFC01E20FF11D60838889ED89FE8978
:1037A000E80FF11D29899081291371C0198A8F5F53
:1037B000888B9A89891709F467C086E067C08930C9
:1037C000D1F4992309F463C06F8B61113DC0CE0120
:1037D000D8DE88858823C1F1CE01FDDE0B891C89E6
:1037E0002D893E89EA8DFB8D4A896E858C851995D8
:1037F000CE010BDF29C0992309F449C0813071F54E
:103800006C87662309F440C0888581113DC0E8EDCE
:10381000EE2EE6E0FE2E00E010E0D12C8091330782
:1038200090E0081719076CF4CC84F701819191910D
:103830007F01DBD2C81202C0DD24D3940F5F1F4F7B
:10384000EDCFD11021C01A86CE01DF91CF911F910B
:103850000F91FF90EF90DF90CF90BBCB823089F437
:103860006D878FEF90E0861B910974E095958795A1
:103870007A95E1F76F7070E08617970729F01A863E
:1038800003C0833009F46E878F858F5F8F87DF9148
:10389000CF911F910F91FF90EF90DF90CF900895FF
:1038A0000F931F93CF93DF93EC018091D6069091F5
:1038B000D706DC01ED91FC910480F581E02D19958E
:1038C000892BE1F08091D6069091D706DC01ED912D
:1038D000FC910680F781E02D19958C01BC017727BA
:1038E000CE01ACDE8985882301F3CE0174DEEC8D38
:1038F000FD8D802F1995CE0188DED7CFDF91CF9136
:103900001F910F91089580913407811103C085EBB9
:1039100096E0C6CF089585EB96E0EFCAFC0162837E
:10392000208341830895FACFEF92FF920F931F9364
:10393000CF93DF93EC0174D210DB813009F047C0E4
:10394000CE016ED260E018DB8C01CE0169D2B801E5
:103950002CDB6E837F8388879987CE0161D261E0FB
:103960000BDB8C01CE015CD2B8011FDB6A877B8741
:103970008C879D87CE0154D262E0FEDA8C01CE01A5
:103980004FD2B80112DB6E877F87888B998B8A892B
:103990008823E9F0CE0132D2811119C0CE0128D29C
:1039A000EE84FF84088919892A853B854C855D85CD
:1039B0006E817F8188859985EB89FC891995CE0177
:1039C000DF91CF911F910F91FF90EF9014C2DF9183
:1039D000CF911F910F91FF90EF900895CF93DF93B8
:1039E000EC016FE0FAD184E293E0998388831E8230
:1039F0001F82188619861A861B861C861D861E86BF
:103A00001F86188A198A1A8ADF91CF910895CF925A
:103A1000DF92EF92FF920F931F93CF93DF93EC010E
:103A2000FFD19BDA813009F043C08887CE01F8D1FD
:103A300060E099DA90E09F838E830A97CCF58E013F
:103A4000065F1F4FE12CF12C68012E813F81E216A9
:103A5000F306ACF4CE01E4D160E08EDAFC01EE0DA9
:103A6000FF1D2081822F8F70F801808322952F7097
:103A70002183FFEFEF1AFF0A0E5F1F4FE6CF898504
:103A80008823B1F0CE01BAD1811112C0CE01B0D1DC
:103A90006E817F81EC8DFD8DC6011995CE01DF9180
:103AA000CF911F910F91FF90EF90DF90CF90A3C126
:103AB000DF91CF911F910F91FF90EF90DF90CF900A
:103AC0000895CF93DF93EC0167E287D18CE293E016
:103AD00099838883188619861F821E8280E090E071
:103AE000FE01E80FF91F12861386029682319105B6
:103AF000B9F7DF91CF910895AF92BF92CF92DF9245
:103B0000EF92FF920F931F93CF93DF93CDB7DEB762
:103B10002C970FB6F894DEBF0FBECDBF8C0180D1BD
:103B20001CDA813049F4C8017BD160E025DADC0180
:103B30008C91F801868384C0823009F081C0D8015D
:103B400017968D919C911897009711F00E94BF2BAA
:103B5000C80166D160E007DAC82ED12CC6010196F3
:103B60000E94272BF80190878783E12CF12CD80144
:103B700017968D919C911897EC14FD048CF45C01C0
:103B8000AE0CBF1CC8014CD160E0F6D98E0D9F1D54
:103B9000DC018C91F5018083FFEFEF1AFF0AE7CF7C
:103BA000FC01EC0DFD1D1082C80128D1811148C017
:103BB000F80181858823A9F0C8011AD1D801179688
:103BC0006D917C91189781E016969C91911101C09E
:103BD00080E0D8011B96ED91FC911C971995C801C6
:103BE0000AD1F8018285882359F1C80101D1D80191
:103BF00017966D917C911897CE0107960E947928AF
:103C0000F801E584F684BE01695F7F4FCE0101961D
:103C10000E94A32881E0D80116969C91911101C0C1
:103C200080E0BE016F5F7F4FF7011995CE010196CD
:103C30000E941228C801DFD0CE0107960E941228E8
:103C40002C960FB6F894DEBF0FBECDBFDF91CF919B
:103C50001F910F91FF90EF90DF90CF90BF90AF90AA
:103C60000895CF93DF93EC0160E2B7D084E393E053
:103C7000998388831E8218861F8219861A86DF918F
:103C8000CF9108950F931F93CF93DF93EC01C8D08A
:103C900064D9813051F5CE01C3D060E06DD9FC010B
:103CA000018110E0102F0027CE01BAD060E064D966
:103CB000FC018081082B1F830E8388858823A9F04F
:103CC000CE019CD0811111C0CE0192D06E817F8136
:103CD000882777FD8095982FE985FA851995CE017B
:103CE000DF91CF911F910F9186C0DF91CF911F91EE
:103CF0000F910895CF93DF93EC0161E16ED08CE3D7
:103D000093E0998388831F821E821886DF91CF916A
:103D10000895CF93DF93EC0183D01FD98130C1F494
:103D2000CE017ED060E028D9FC0180818E838F8116
:103D3000882371F0CE0162D081110AC0CE0158D023
:103D4000E885F9858E811995CE01DF91CF9153C019
:103D5000DF91CF910895CF93DF93EC0163E13DD0E4
:103D600084E493E0998388831E821F82DF91CF9140
:103D70000895CF93DF93EC0153D0EFD88130E1F475
:103D8000CE014ED060E0F8D8FC0180818E838F8117
:103D9000882391F0CE0132D081110EC0CE0128D0FF
:103DA00081E09E81911101C080E0E885F985199537
:103DB000CE01DF91CF911FC0DF91CF910895CF93B6
:103DC000DF93EC0163E009D08CE493E0998388836E
:103DD0001E821F82DF91CF91089524E533E0FC011C
:103DE0003183208363831282A5C8FC0183810895F7
:103DF00085EB96E0F0CB85EB96E007CC85EB96E083
:103E000019C9909338078093370781E0809336076C
:103E100008951092380710923707109236070895C8
:103E200080913607882329F08091370790913807D1
:103E3000089585EB96E008951F93CF93DF93EC01EF
:103E40001B81EEDF87D8181323C0CE01E9DF85D8A8
:103E50008F3FA1F48A818823D9F085EB96E0EAD8D8
:103E6000811116C085EB96E0B6DBEC81FD811995DA
:103E700085EB96E0DF91CF911F91C7CBE881F98167
:103E80000280F381E02DCE01DF91CF911F91199433
:103E9000DF91CF911F910895CF93DF93EC01C0DFA5
:103EA0005CD88130C1F4CE01BBDF60E065D8FC0195
:103EB00080818E838F81882371F0CE019FDF8111F5
:103EC0000AC0CE0195DFE885F9858E811995CE016E
:103ED000DF91CF9190CFDF91CF910895CF93DF9372
:103EE000EC0161E07ADF8CE593E0998388831E82A0
:103EF0001F82DF91CF910895AF92BF92CF92DF9250
:103F0000EF92FF920F931F93CF93DF93CDB7DEB75E
:103F10002C970FB6F894DEBF0FBECDBF8C0180DFAB
:103F20001CD8813009F0B4C0D8011B968C931B9724
:103F300016968D919C911797009711F00E94BF2BB8
:103F4000F80180859185009711F00E94BF2BC80170
:103F500067DF60E008D8C82ED12CC60101960E9408
:103F6000272BD80119969C938E931897E12CF12C4E
:103F7000F80180859185EC14FD0494F45C01AE0C8D
:103F8000BF1CC8014DDF60E00E94BC178E0D9F1D55
:103F9000FC018081D5018C93BFEFEB1AFB0AE8CFBF
:103FA000FC01EC0DFD1D1082C8013ADF61E00E94AA
:103FB000B317C82ED12CC60101960E94272BD80119
:103FC00017969C938E931697E12CF12CF80186811D
:103FD0009781EC14FD0494F45C01AE0CBF1CC80185
:103FE0001FDF61E00E94BC178E0D9F1DFC018081C8
:103FF000D5018C93BFEFEB1AFB0AE8CFFC01EC0D67
:10400000FD1D1082C801FADE811142C0D8011A9646
:104010008C91882381F0C801EBDEF80166817781FD
:104020000584F685E02DD80118968D919C911997FD
:104030001995C801E0DEF8018485882349F1C8019B
:10404000D7DED8011F96ED90FC9050971B961C92DE
:104050001B9716966D917C911797CE0101960E9441
:104060007928F801138660857185CE0107960E9434
:104070007928BE016F5F7F4FCE010796F701199532
:10408000CE010796CFD7CE010196CCD7C801B3DEBB
:104090002C960FB6F894DEBF0FBECDBFDF91CF9147
:1040A0001F910F91FF90EF90DF90CF90BF90AF9056
:1040B0000895CF93DF93EC016DE08FDE84E693E00B
:1040C000998388831F821E82198618861A861B860A
:1040D0001C86DF91CF910895CF93DF93EC01A0DE92
:1040E0000E94AD178130C9F4CE019ADE60E00E94D3
:1040F000BC17FC0180818E838F81882371F0CE01F3
:104100007DDE81110AC0CE0173DEE885F9858E81DE
:104110001995CE01DF91CF916ECEDF91CF910895A9
:10412000CF93DF93EC0162E158DE8CE693E0998354
:1041300088838FEF8E831F82DF91CF9108956F92D6
:104140007F928F929F92AF92BF92CF92DF92EF9227
:10415000FF920F931F93CF93DF93EC0161DE0E94D8
:10416000AD17182FCE015CDE60E00E94B31711304E
:1041700009F044C0E12CF12C882E912C6E018FE4C3
:10418000C80ED11C8E01075B1F4F5E01ADE4AA0E65
:10419000B11C3E01B9E06B0E711CE814F90474F512
:1041A000CE013EDE60E00E94BC178E0D9F1DFC011B
:1041B0002081D6018D919C9180349105D9F0D80150
:1041C000ED91FC911197CF01019611969C938E93DE
:1041D0002083F601808191810196918380832D91C6
:1041E0003C91D5018D919C912817390719F4F8015C
:1041F00071826082FFEFEF1AFF0ACFCFDF91CF917C
:104200001F910F91FF90EF90DF90CF90BF90AF90F4
:104210009F908F907F906F900895CF93DF93EC01E4
:1042200022E041E066E206967EDB66E2CE01D5DD65
:1042300084E793E099838883CE010996FE01E75BCA
:10424000FF4F91838083DE01A55BBF4F11969C9346
:104250008E931296ED93FC93C15BDF4F1982188207
:10426000DF91CF910895CF93DF93EC01D9DD0E94C8
:10427000AD178130E9F4CE01D3DD60E00E94BC17B8
:10428000FC0180818E838F81882391F0CE01B6DD81
:1042900081110EC0CE01ACDD81E09E81911101C083
:1042A00080E0E885F9851995CE01DF91CF91A3CD06
:1042B000DF91CF910895CF93DF93EC0164E08DDD22
:1042C0008CE793E0998388831E821F82DF91CF91D0
:1042D0000895AF92BF92CF92DF92EF92FF920F9329
:1042E0001F93CF93DF93CDB7DEB768970FB6F894DF
:1042F000DEBF0FBECDBF8C0193DD0E94AD178130B4
:1043000009F0BFC0D8011C968C931C9716968D910E
:104310009C911797009711F00E94BF2BF8018085A0
:104320009185009711F00E94BF2BC80179DD60E0F4
:104330000E94B317C82ED12CC60101960E94272BCC
:10434000D80117969C938E931697E12CF12CF801C7
:1043500086819781EC14FD0494F45C01AE0CBF1CC3
:10436000C8015EDD60E00E94BC178E0D9F1DFC0140
:104370008081D5018C93BFEFEB1AFB0AE8CFFC01DB
:10438000EC0DFD1D1082C8014BDD61E00E94B317EA
:10439000C82ED12CC60101960E94272BD801199650
:1043A0009C938E931897E12CF12CF80180859185D0
:1043B000EC14FD0494F45C01AE0CBF1CC80130DDAC
:1043C00061E00E94BC178E0D9F1DFC018081D5010C
:1043D0008C93BFEFEB1AFB0AE8CFFC01EC0DFD1D3F
:1043E0001082C8010BDD81114CC0D8011A968C9146
:1043F000882381F0C801FCDCF801608571850584A3
:10440000F685E02DD80116968D919C9117971995F8
:10441000C801F1DCF8018385882399F166817781F1
:10442000CE01439666D6D80118966D917C91199766
:10443000CE010D965ED6C801DBDCF801E784F0887A
:10444000BE01635F7F4FCE0101967DD6BE016D5EDA
:104450007F4FCE01079677D6BE016F5F7F4FCE01AB
:104460000796F7011995CE010796DCD5CE01019686
:10447000D9D5C801C0DCCE010D96D4D5CE01439666
:10448000D1D568960FB6F894DEBF0FBECDBFDF91D1
:10449000CF911F910F91FF90EF90DF90CF90BF9041
:1044A000AF900895CF93DF93EC016AE196DC84E846
:1044B00093E0998388831F821E82198618861A8644
:1044C0001B861C86DF91CF910895CF93DF93EC017B
:1044D0006AE283DC8CE893E099838883DF91CF9153
:1044E0000895CF92DF92EF92FF920F931F93CF9395
:1044F000DF93CDB7DEB72C970FB6F894DEBF0FBEB3
:10450000CDBF8C018DDC0E94AD17813009F078C0E1
:10451000D80116968D919C911797009711F00E94E3
:10452000BF2BC8017DDC60E00E94B31790E0F8016A
:104530009187808701960E94272BD80117969C931C
:104540008E931697E12CF12CF801808591852681B8
:104550003781E816F90694F46901CE0CDF1CC80116
:104560005FDC60E00E94BC178E0D9F1DFC01808106
:10457000D6018C93BFEFEB1AFB0AE6CFF901E80FE7
:10458000F91F108281E0D8011E968C93C80136DC99
:10459000811157C0F8018285882371F0C80128DC99
:1045A000D8015096ED91FC91519716968D919C9162
:1045B00017971995C8011FDCF8018585882309F430
:1045C00040C066817781CE01079693D5C80110DC83
:1045D000D8015296ED90FC905397BE01695F7F4FD2
:1045E000CE010196B0D5CE010196F7011995CE0105
:1045F000019618D5C801FFDBCE01079613D521C05F
:104600008230F9F4C801FADB81111BC0C80108DC53
:1046100060E00E94BC17FC018081D8011F968C933A
:104620001F971B968C91882361F0C801E1DBD801AC
:104630005496ED91FC9155971F968C911995C80150
:10464000DADB2C960FB6F894DEBF0FBECDBFDF913C
:10465000CF911F910F91FF90EF90DF90CF90089531
:10466000CF93DF93EC0164E2B8DB84E993E09983B4
:1046700088831F821E828FEF9FEF998788871A8613
:104680001E861B861C861D861F86DF91CF9108958E
:104690001F920F920FB60F9211242F933F938F9377
:1046A0009F93AF93BF9380913A0790913B07A0915E
:1046B0003C07B0913D073091390723E0230F2D3798
:1046C00020F40196A11DB11D05C026E8230F029616
:1046D000A11DB11D2093390780933A0790933B07A2
:1046E000A0933C07B0933D0780913E0790913F0710
:1046F000A0914007B09141070196A11DB11D809383
:104700003E0790933F07A0934007B0934107BF91A6
:10471000AF919F918F913F912F910F900FBE0F906E
:104720001F9018952FB7F89460913A0770913B0746
:1047300080913C0790913D072FBF0895789484B5F0
:10474000826084BD84B5816084BD85B5826085BD8D
:1047500085B5816085BDEEE6F0E080818160808373
:10476000E1E8F0E010828081826080838081816056
:104770008083E0E8F0E0808181608083E1EBF0E01D
:10478000808184608083E0EBF0E0808181608083C1
:10479000E1E9F0E0808182608083808181608083B4
:1047A000E0E9F0E0808181608083E1EAF0E08081EF
:1047B00082608083808181608083E0EAF0E0808194
:1047C00081608083E1E2F1E080818260808380818A
:1047D00081608083E0E2F1E0808181608083EAE7AC
:1047E000F0E080818460808380818260808380812A
:1047F000816080838081806880831092C1000895E9
:104800001F93CF93DF93182FEB0161E00FD1209717
:1048100011F460E004C0CF3FD10531F461E0812F95
:10482000DF91CF911F913BC1E12FF0E0E45DFE4F9E
:10483000449150E0FA013197E231F10508F09AC055
:10484000EE58FF4FE1C684B5806884BDC7BD97C0F0
:1048500084B5806284BDC8BD92C0809180008068AC
:1048600080938000D0938900C093880088C0809195
:104870008000806280938000D0938B00C0938A0078
:104880007EC080918000886080938000D0938D00EE
:10489000C0938C0074C08091B00080688093B00099
:1048A000C093B3006CC08091B00080628093B00070
:1048B000C093B40064C080919000806880939000A1
:1048C000D0939900C09398005AC080919000806264
:1048D00080939000D0939B00C0939A0050C0809129
:1048E0009000886080939000D0939D00C0939C00BE
:1048F00046C08091A00080688093A0008091A000B5
:104900008F7B8093A000D093A900C093A80037C0EC
:104910008091A00080628093A000D093AB00C093F0
:10492000AA002DC08091A00088608093A000D09341
:10493000AD00C093AC0023C08091200180688093BB
:104940002001D0932901C093280119C08091200132
:10495000806280932001D0932B01C0932A010FC065
:1049600080912001886080932001D0932D01C09315
:104970002C0105C0C038D1050CF050CF4ACFDF91D3
:10498000CF911F91089590E0FC013197E231F1053C
:1049900008F04BC0EC57FF4F37C6809180008F77EF
:1049A00003C0809180008F7D809380000895809166
:1049B0008000877FF9CF84B58F7702C084B58F7D63
:1049C00084BD08958091B0008F7703C08091B000BE
:1049D0008F7D8093B0000895809190008F7707C0FD
:1049E000809190008F7D03C080919000877F80939D
:1049F000900008958091A0008F7707C08091A0005B
:104A00008F7D03C08091A000877F8093A0000895D0
:104A1000809120018F7707C0809120018F7D03C096
:104A200080912001877F809320010895CF93DF93A9
:104A300090E0FC01EE58FE4F2491FC01E854FE4F3B
:104A40008491882349F190E0880F991FFC01E85E6A
:104A5000FD4FA591B49182509E4FFC01C591D49118
:104A60009FB7611108C0F8948C91209582238C9394
:104A7000888182230AC0623051F4F8948C91322FDD
:104A8000309583238C938881822B888304C0F8948B
:104A90008C91822B8C939FBFDF91CF9108950F93C0
:104AA0001F93CF93DF931F92CDB7DEB7282F30E04F
:104AB000F901E45DFE4F8491F901EE58FE4F149127
:104AC000F901E854FE4F04910023C1F0882319F046
:104AD000698359DF6981E02FF0E0EE0FFF1FE2509C
:104AE000FE4FA591B4919FB7F8948C91611103C0CA
:104AF0001095812301C0812B8C939FBF0F90DF9174
:104B0000CF911F910F910895FC01818D228D90E02E
:104B1000805C9F4F821B91098F7399270895FC0138
:104B2000918D828D981731F0828DE80FF11D858D62
:104B300090E008958FEF9FEF0895FC01918D828D95
:104B4000981761F0828DDF01A80FB11D5D968C91E1
:104B5000928D9F5F9F73928F90E008958FEF9FEFEC
:104B6000089582E597E2892B39F083E89CE1892B4F
:104B700019F098D1811125C080E090E0892B41F097
:104B800080E090E0892B21F00E94000081111CC080
:104B900080E090E0892B41F080E090E0892B21F0CB
:104BA0000E940000811113C080E090E0892BA1F0E9
:104BB00080E090E0892B81F00E94000081110AC002
:104BC00008950E94831CD8CF0E940000E1CF0E946C
:104BD0000000EACF0C9400000895FC01848DDF01F1
:104BE000A80FB11DA35ABF4F2C91848D90E0019660
:104BF0008F739927848FA689B7892C93A089B1894F
:104C00008C9180648C93938D848D981306C0028858
:104C1000F389E02D80818F7D80830895CF93DF938A
:104C2000EC01888D8823C1F0EA89FB89808185FDAC
:104C300005C0A889B9898C9186FD0EC00FB607FC06
:104C4000F5CF808185FFF2CFA889B9898C9185FF46
:104C5000EDCFCE01C2DFE8CFDF91CF910895CF92A3
:104C6000DF92FF920F931F93CF93DF931F92CDB7E5
:104C7000DEB76C0181E0D60158968C9358975B960D
:104C80009C915B975C968C915C97981307C05096AB
:104C9000ED91FC915197808185FD2DC0F601038D2A
:104CA00010E00F5F1F4F0F731127F02EF601848D58
:104CB000F81210C00FB607FCF9CFD6015096ED914F
:104CC000FC915197808185FFF1CFC601698385DF13
:104CD0006981ECCF838DE80FF11DE35AFF4F6083AC
:104CE000D6015B960C935B975296ED91FC9153978E
:104CF000808180620CC0D6015696ED91FC91579749
:104D000060835096ED91FC915197808180648083FF
:104D100081E090E00F90DF91CF911F910F91FF9074
:104D2000DF90CF900895BF92CF92DF92EF92FF92E3
:104D3000CF93DF93EC016A017B01B22EE889F989F8
:104D400082E08083411581EE58076105710599F075
:104D500060E079E08DE390E0A701960117D421503F
:104D600031094109510956954795379527952115E0
:104D700080E1380790F0E889F989108260E874E8EA
:104D80008EE190E0A701960101D42150310941093B
:104D900051095695479537952795EC85FD853083C4
:104DA000EE85FF852083188EEC89FD89B082EA8923
:104DB000FB89808180618083EA89FB8980818860AA
:104DC0008083EA89FB89808180688083EA89FB8906
:104DD00080818F7D8083DF91CF91FF90EF90DF9076
:104DE000CF90BF9008951F920F920FB60F9211248B
:104DF0000BB60F922F938F939F93EF93FF93E091B6
:104E00005207F09153078081E0915807F0915907BC
:104E100082FD12C0908180915B078F5F8F7320911C
:104E20005C07821751F0E0915B07F0E0EE5BF84F12
:104E3000958F80935B0701C08081FF91EF919F91D7
:104E40008F912F910F900BBE0F900FBE0F901F9060
:104E500018951F920F920FB60F9211240BB60F9256
:104E60002F933F934F935F936F937F938F939F9372
:104E7000AF93BF93EF93FF9382E497E0AEDEFF9191
:104E8000EF91BF91AF919F918F917F916F915F91C2
:104E90004F913F912F910F900BBE0F900FBE0F902F
:104EA0001F90189582E497E02FDE21E0892B09F40A
:104EB00020E0822F0895109245071092440788EE53
:104EC00093E0A0E0B0E08093460790934707A0935B
:104ED0004807B09349078CE993E090934307809388
:104EE000420785EC90E090934F0780934E0784EC47
:104EF00090E0909351078093500780EC90E090935E
:104F000053078093520781EC90E09093550780936C
:104F1000540782EC90E0909357078093560786ECF5
:104F200090E0909359078093580710925B07109276
:104F30005C0710925D0710925E0708950895FEDBEE
:104F4000FDDF0E945301C1EBD5E20E944802209789
:104F5000E1F307DEFACF7BC312C4CF92DF92EF9268
:104F6000FF920F931F93CF93DF936C017A01EB01B4
:104F7000E60EF71E00E010E0CE15DF0561F0699146
:104F8000D601ED91FC910190F081E02DC6011995BB
:104F9000080F191FF1CFC801DF91CF911F910F9119
:104FA000FF90EF90DF90CF900895CF93DF9300D0E4
:104FB0001F92CDB7DEB79B01AC016115710581056C
:104FC000910559F069833A834B835C83B1D429817D
:104FD0003A814B815C81FCD203C060E070E0CB0180
:104FE0000F900F900F900F90DF91CF910895CF9277
:104FF000DF92EF92FF926B017C01621773078407C7
:1050000095075CF4CA01B9016C197D098E099F09E5
:10501000CCDF6C0D7D1D8E1D9F1DFF90EF90DF90EE
:10502000CF900895FC0180819181A9C3CF93DF9334
:10503000EC0188819981009709F0A1D31982188227
:105040001D821C821B821A82DF91CF9108950F93DB
:105050001F93CF93DF93EC018B016F5F7F4F8881AC
:10506000998172D4009731F0998388831B830A83D6
:1050700081E001C080E0DF91CF911F910F910895F1
:10508000CF93DF93EC0188819981892B29F08A8164
:105090009B818617970758F4CE01D9DF882341F00A
:1050A0008C819D81892B19F4E881F981108281E03E
:1050B000DF91CF910895EF92FF920F931F93CF93BB
:1050C000DF93EC017B018A01BA01DADF811103C0B1
:1050D000CE01ACDF06C01D830C83B70188819981A6
:1050E0002DD5CE01DF91CF911F910F91FF90EF90C1
:1050F0000895FC011182108213821282158214829B
:105100006115710551F0FB0101900020E9F7AF0135
:1051100041505109461B570BCECF0895CF93DF93D3
:10512000EC01FB018617970751F0608171816115D1
:10513000710521F044815581BEDF01C077DFCE01CA
:10514000DF91CF910895FC011182108213821282A7
:1051500015821482E3CF5058BB27AA270ED075C101
:1051600066D130F06BD120F031F49F3F11F41EF482
:105170005BC10EF4E095E7FB51C1E92F77D180F3D5
:10518000BA17620773078407950718F071F49EF544
:105190008FC10EF4E0950B2EBA2FA02D0B01B90193
:1051A00090010C01CA01A0011124FF27591B99F09D
:1051B000593F50F4503E68F11A16F040A22F232FA9
:1051C000342F4427585FF3CF469537952795A795F9
:1051D000F0405395C9F77EF41F16BA0B620B730BA0
:1051E000840BBAF09150A1F0FF0FBB1F661F771F11
:1051F000881FC2F70EC0BA0F621F731F841F48F4C6
:10520000879577956795B795F7959E3F08F0B3CF4B
:105210009395880F08F09927EE0F97958795089535
:10522000D9D008F481E008950CD00FC107D140F027
:10523000FED030F021F45F3F19F0F0C0511139C1B8
:10524000F3C014D198F39923C9F35523B1F3951BF7
:10525000550BBB27AA2762177307840738F09F5F97
:105260005F4F220F331F441FAA1FA9F333D00E2E06
:105270003AF0E0E830D091505040E695001CCAF773
:1052800029D0FE2F27D0660F771F881FBB1F261738
:1052900037074807AB07B0E809F0BB0B802DBF010B
:1052A000FF2793585F4F2AF09E3F510568F0B6C024
:1052B00000C15F3FECF3983EDCF3869577956795E8
:1052C000B795F7959F5FC9F7880F911D96958795BC
:1052D00097F90895E1E0660F771F881FBB1F6217DB
:1052E00073078407BA0720F0621B730B840BBA0B99
:1052F000EE1F88F7E095089504D06894B111D9C0E5
:105300000895BCD088F09F5790F0B92F9927B751D6
:10531000A0F0D1F0660F771F881F991F1AF0BA9579
:10532000C9F712C0B13081F0C3D0B1E00895C0C058
:10533000672F782F8827B85F39F0B93FCCF386956F
:1053400077956795B395D9F73EF4909580957095CC
:1053500061957F4F8F4F9F4F0895E89409C097FB49
:105360003EF490958095709561957F4F8F4F9F4F3C
:105370009923A9F0F92F96E9BB279395F695879580
:1053800077956795B795F111F8CFFAF4BB0F11F443
:1053900060FF1BC06F5F7F4F8F4F9F4F16C08823EA
:1053A00011F096E911C0772321F09EE8872F762F20
:1053B00005C0662371F096E8862F70E060E02AF061
:1053C0009A95660F771F881FDAF7880F969587954D
:1053D00097F90895990F0008550FAA0BE0E8FEEF22
:1053E00016161706E807F907C0F012161306E407A9
:1053F000F50798F0621B730B840B950B39F40A26A2
:1054000061F0232B242B252B21F408950A2609F47F
:10541000A140A6958FEF811D811D089597F99F6783
:1054200080E870E060E008959FEF80EC089500242C
:105430000A941616170618060906089500240A94F9
:1054400012161306140605060895092E0394000C7F
:1054500011F4882352F0BB0F40F4BF2B11F460FF0E
:1054600004C06F5F7F4F8F4F9F4F089557FD905837
:10547000440F551F59F05F3F71F04795880F97FB18
:10548000991F61F09F3F79F08795089512161306D2
:105490001406551FF2CF4695F1DF08C01616170601
:1054A0001806991FF1CF8695710561050894089536
:1054B000E894BB2766277727CB0197F908958ADF01
:1054C00008F48FEF08950BD0C0CFB1DF28F0B6DF1E
:1054D00018F0952309F0A2CFA7CF1124EACFC6DF99
:1054E000A0F3959FD1F3950F50E0551F629FF001F7
:1054F000729FBB27F00DB11D639FAA27F00DB11D50
:10550000AA1F649F6627B00DA11D661F829F2227D8
:10551000B00DA11D621F739FB00DA11D621F839F5F
:10552000A00D611D221F749F3327A00D611D231F35
:10553000849F600D211D822F762F6A2F11249F5783
:1055400050408AF0E1F088234AF0EE0FFF1FBB1FA6
:10555000661F771F881F91505040A9F79E3F510545
:1055600070F05CCFA6CF5F3FECF3983EDCF38695FE
:1055700077956795B795F795E7959F5FC1F7FE2BF0
:10558000880F911D9695879597F90895A1E21A2E97
:10559000AA1BBB1BFD010DC0AA1FBB1FEE1FFF1FD7
:1055A000A217B307E407F50720F0A21BB30BE40B27
:1055B000F50B661F771F881F991F1A9469F760956E
:1055C0007095809590959B01AC01BD01CF01089528
:1055D000052E97FB16F400940FD057FD05D0D6DFAB
:1055E00007FC02D046F408C05095409530952195AF
:1055F0003F4F4F4F5F4F08959095809570956195FF
:105600007F4F8F4F9F4F0895EE0FFF1F0590F4912E
:10561000E02D19940DD0A59F900DB49F900DA49FDF
:10562000800D911D112408950790F691E02D199495
:10563000A29FB001B39FC001A39F700D811D1124D3
:10564000911DB29F700D811D1124911D0895CF935E
:10565000DF938230910510F482E090E0E091E10761
:10566000F091E20720E030E0A0E0B0E0309739F1BF
:105670004081518148175907B8F04817590771F40C
:1056800082819381109729F013969C938E931297A1
:105690002CC09093E2078093E10727C021153105C4
:1056A00031F04217530718F0A901DB0101C0EF01E7
:1056B0009A01BD01DF010280F381E02DD7CF2115D2
:1056C0003105F9F0281B390B2430310580F48A812B
:1056D0009B816115710521F0FB019383828304C0D6
:1056E0009093E2078093E107FE01329644C0FE01E9
:1056F000E20FF31F8193919322503109398328835C
:105700003AC02091DF073091E007232B41F420912C
:105710000202309103023093E0072093DF072091CB
:105720000002309101022115310541F42DB73EB739
:105730004091040250910502241B350BE091DF07D4
:10574000F091E007E217F307A0F42E1B3F0B281798
:10575000390778F0AC014E5F5F4F2417350748F0EA
:105760004E0F5F1F5093E0074093DF0781939193A3
:1057700002C0E0E0F0E0CF01DF91CF910895CF9338
:10578000DF93009709F487C0FC01329713821282DD
:10579000C091E107D091E207209781F42081318107
:1057A000280F391F8091DF079091E0078217930738
:1057B00079F5F093E007E093DF076DC0DE0120E0AC
:1057C00030E0AE17BF0750F412964D915C911397DD
:1057D0009D014115510509F1DA01F3CFB383A2838D
:1057E00040815181840F951F8A179B0771F48D9119
:1057F0009C911197840F951F029691838083129636
:105800008D919C911397938382832115310529F4FF
:10581000F093E207E093E1073EC0D9011396FC93B1
:10582000EE9312974D915D91A40FB51FEA17FB07F8
:1058300079F480819181840F951F0296D901119688
:105840009C938E938281938113969C938E9312974F
:10585000E0E0F0E08A819B81009719F0FE01EC0105
:10586000F9CFCE01029628813981820F931F2091B2
:10587000DF073091E0072817390769F4309729F4DA
:105880001092E2071092E10702C013821282D093B5
:10589000E007C093DF07DF91CF9108958F929F9229
:1058A000AF92BF92CF92DF92EF92FF92CF93DF93AE
:1058B000EC01688179818A819B816115710581057F
:1058C000910521F464E279ED8BE597E02DE133EF6A
:1058D00041E050E07DDE49015A019B01AC01A7EA9D
:1058E000B1E498DE6B017C01ACEEB4EFA50194014C
:1058F0002ED1C60ED71EE81EF91EF7FE06C081E0A7
:10590000C81AD108E10880E8F80AC882D982EA8278
:10591000FB82C701B6019F77DF91CF91FF90EF9097
:10592000DF90CF90BF90AF909F908F900895B6CFAB
:1059300086E092E0B3CF60930602709307028093F3
:1059400008029093090208956F927F928F929F921E
:10595000AF92BF92CF92DF92EF92FF920F931F937D
:10596000CF93DF93EC01CB01209779F4DF91CF91B6
:105970001F910F91FF90EF90DF90CF90BF90AF906D
:105980009F908F907F906F9062CEFE01E60FF71F81
:105990009E0122503109E217F30708F4A8C0D9018B
:1059A0000D911C91119706171707B0F005301105DE
:1059B00008F49BC0A801445051094617570708F442
:1059C00094C002501109061B170B019311936D939C
:1059D0007C93CF01D4DE89C05B01A01AB10A4E01CD
:1059E000800E911EA091E107B091E207612C712C0D
:1059F00060E070E0109709F449C0A815B905C9F531
:105A0000ED90FC901197670142E0C40ED11CCA14BE
:105A1000DB0478F147018A189B08640142E0C40E58
:105A2000D11C1296BC9012971396AC91B5E0CB1690
:105A3000D10440F0B282A38391828082D9018D93F8
:105A40009C9309C00E5F1F4F0E0D1F1DF90111839E
:105A50000083EB2DFA2F6115710531F0DB011396F0
:105A6000FC93EE93129741C0F093E207E093E107B5
:105A70003CC06D917C9111976616770608F43B0146
:105A8000BD0112960D90BC91A02DB4CF6091DF079F
:105A90007091E00768157905E9F468167906D0F485
:105AA00040910002509101024115510541F44DB75A
:105AB0005EB76091040270910502461B570BE41714
:105AC000F507A8F4F093E007E093DF07F90191836D
:105AD00080830BC0BCDD7C01009749F0A801BE01AA
